{
  "contractName": "SimpleMarketplace",
  "abi": [
    {
      "inputs": [
        {
          "internalType": "string",
          "name": "description",
          "type": "string"
        },
        {
          "internalType": "int256",
          "name": "price",
          "type": "int256"
        }
      ],
      "payable": false,
      "stateMutability": "nonpayable",
      "type": "constructor"
    },
    {
      "constant": true,
      "inputs": [],
      "name": "AskingPrice",
      "outputs": [
        {
          "internalType": "int256",
          "name": "",
          "type": "int256"
        }
      ],
      "payable": false,
      "stateMutability": "view",
      "type": "function"
    },
    {
      "constant": true,
      "inputs": [],
      "name": "Description",
      "outputs": [
        {
          "internalType": "string",
          "name": "",
          "type": "string"
        }
      ],
      "payable": false,
      "stateMutability": "view",
      "type": "function"
    },
    {
      "constant": true,
      "inputs": [],
      "name": "InstanceBuyer",
      "outputs": [
        {
          "internalType": "address",
          "name": "",
          "type": "address"
        }
      ],
      "payable": false,
      "stateMutability": "view",
      "type": "function"
    },
    {
      "constant": true,
      "inputs": [],
      "name": "InstanceOwner",
      "outputs": [
        {
          "internalType": "address",
          "name": "",
          "type": "address"
        }
      ],
      "payable": false,
      "stateMutability": "view",
      "type": "function"
    },
    {
      "constant": true,
      "inputs": [],
      "name": "OfferPrice",
      "outputs": [
        {
          "internalType": "int256",
          "name": "",
          "type": "int256"
        }
      ],
      "payable": false,
      "stateMutability": "view",
      "type": "function"
    },
    {
      "constant": true,
      "inputs": [],
      "name": "State",
      "outputs": [
        {
          "internalType": "enum SimpleMarketplace.StateType",
          "name": "",
          "type": "uint8"
        }
      ],
      "payable": false,
      "stateMutability": "view",
      "type": "function"
    },
    {
      "constant": false,
      "inputs": [
        {
          "internalType": "int256",
          "name": "offerPrice",
          "type": "int256"
        }
      ],
      "name": "MakeOffer",
      "outputs": [],
      "payable": false,
      "stateMutability": "nonpayable",
      "type": "function"
    }
  ],
  "bytecode": "0x608060405234801561001057600080fd5b506040516105a73803806105a78339818101604052604081101561003357600080fd5b810190808051604051939291908464010000000082111561005357600080fd5b8382019150602082018581111561006957600080fd5b825186600182028301116401000000008211171561008657600080fd5b8083526020830192505050908051906020019080838360005b838110156100ba57808201518184015260208101905061009f565b50505050905090810190601f1680156100e75780820380516001836020036101000a031916815260200191505b5060405260200180519060200190929190505050336000806101000a81548173ffffffffffffffffffffffffffffffffffffffff021916908373ffffffffffffffffffffffffffffffffffffffff160217905550806002819055508160019080519060200190610158929190610184565b506000600360006101000a81548160ff0219169083600281111561017857fe5b02179055505050610229565b828054600181600116156101000203166002900490600052602060002090601f016020900481019282601f106101c557805160ff19168380011785556101f3565b828001600101855582156101f3579182015b828111156101f25782518255916020019190600101906101d7565b5b5090506102009190610204565b5090565b61022691905b8082111561022257600081600090555060010161020a565b5090565b90565b61036f806102386000396000f3fe608060405234801561001057600080fd5b506004361061007d5760003560e01c806385b44a261161005b57806385b44a261461016d578063b7303ba11461019b578063ec69f29f146101e5578063f1b6dccd146102035761007d565b806317200b6c1461008257806353070152146100cc5780638191745f146100ea575b600080fd5b61008a61022f565b604051808273ffffffffffffffffffffffffffffffffffffffff1673ffffffffffffffffffffffffffffffffffffffff16815260200191505060405180910390f35b6100d4610254565b6040518082815260200191505060405180910390f35b6100f261025a565b6040518080602001828103825283818151815260200191508051906020019080838360005b83811015610132578082015181840152602081019050610117565b50505050905090810190601f16801561015f5780820380516001836020036101000a031916815260200191505b509250505060405180910390f35b6101996004803603602081101561018357600080fd5b81019080803590602001909291905050506102f8565b005b6101a36102fb565b604051808273ffffffffffffffffffffffffffffffffffffffff1673ffffffffffffffffffffffffffffffffffffffff16815260200191505060405180910390f35b6101ed610321565b6040518082815260200191505060405180910390f35b61020b610327565b6040518082600281111561021b57fe5b60ff16815260200191505060405180910390f35b6000809054906101000a900473ffffffffffffffffffffffffffffffffffffffff1681565b60045481565b60018054600181600116156101000203166002900480601f0160208091040260200160405190810160405280929190818152602001828054600181600116156101000203166002900480156102f05780601f106102c5576101008083540402835291602001916102f0565b820191906000526020600020905b8154815290600101906020018083116102d357829003601f168201915b505050505081565b50565b600360019054906101000a900473ffffffffffffffffffffffffffffffffffffffff1681565b60025481565b600360009054906101000a900460ff168156fea265627a7a7231582075675149807ff6c94452733f84a6c84e46c356c7031a33152d9f9ed42f68e23a64736f6c63430005100032",
  "source": "pragma solidity >=0.4.25 <0.6.0;\r\n\r\ncontract SimpleMarketplace\r\n{\r\n    enum StateType { \r\n      ItemAvailable,\r\n      OfferPlaced,\r\n      Accepted\r\n    }\r\n\r\n    address public InstanceOwner;\r\n    string public Description;\r\n    int public AskingPrice;\r\n    StateType public State;\r\n\r\n    address public InstanceBuyer;\r\n    int public OfferPrice;\r\n\r\n    constructor(string memory description, int price) public\r\n    {\r\n        InstanceOwner = msg.sender;\r\n        AskingPrice = price;\r\n        Description = description;\r\n        State = StateType.ItemAvailable;\r\n    }\r\n\r\n    function MakeOffer(int offerPrice) public\r\n    {\r\n       \r\n    }\r\n\r\n    \r\n}",
  "sourcePath": "E:\\truffle new project\\contracts\\Contract1.sol",
  "compiler": {
    "name": "solc",
    "version": "0.5.16+commit.9c3226ce.Emscripten.clang"
  },
  "schemaVersion": "3.4.3",
  "updatedAt": "2021-09-23T15:56:06.527Z",
  "devdoc": {
    "methods": {}
  },
  "userdoc": {
    "methods": {}
  }
}